S00B00004C61622E737265630A
S11300000C942A000C943F000C943F000C943F0085
S11300100C943F000C943F000C943F000C943F0060
S11300200C943F000C943F000C943F000C943F0050
S11300300C943F000C943F000C943F000C943F0040
S11300400C943F000C943F000C943F000C943F0030
S11300500C943F0011241FBECFE5D8E0DEBFCDBF16
S113006011E0A0E6B0E0EEE3F1E002C005900D92ED
S1130070A837B107D9F70E9465000C949D000C9431
S11300800000E0E7F0E0A0E6B0E028E730E00CC0D4
S113009040814BBB4C9142BB01970097C9F7319605
S11300A01296E217F30719F082E390E0F1CF089576
S11300B0E0E6F0E020E730E0808191818F6F81936A
S11300C09193E217F307C1F708958FEF81BB8ABBC1
S11300D014BA8FE087BBC0E0D0E0C12CD12C00E67D
S11300E010E00F2EF0E7EF2EF0E0FF2EF02D1DC0F4
S11300F09F990E945800C8BB0000989B15C0DE0160
S1130100A295B295B07FBA27A07FBA27A858BF4F4F
S1130110F8018D919D9120813181822393238193D4
S11301209193EE15FF05A9F72196C031D10504F38B
S11101300E944100CC2DDD2DF8CFF894FFCFB6
S113013EFF00FF00FF00FF00FF00FF00FF00FF00B5
S113014E01020408102040807F00FF00FF00FF0022
S113015EFF00FF00FF00FF00FF00FF007F00FF0015
S113016EFF00FF00FF00FF00FF00FF00FF00FF0085
S113017E7F00FF00FF00FF00FF00FF00FF00FF00F5
S113018EFF00FF007F00FF00DF00FF00FF00FF0005
S113019EFF00FF00FF00FF00FF00FF00DF00FF0075
S11301AEFF00FF00FF00FF00FF00FF00FF00FF0045
S11301BEDF00FF00FF00FF00FF00FF00FF00FF0055
S11301CEFF00FF00DF00FF00F700FF00FF00FF004D
S11301DEFF00FF00FF00FF00FF00FF00F700FF001D
S11301EEFF00FF00FF00FF00FF00FF00FF00FF0005
S11301FEF700FF00FF00FF00FF00FF00FF00FF00FD
S113020EFF00FF00F700FF00FD00FF00FF00FF00EE
S113021EFF00FF00FF00FF00FF00FF00FD00FF00D6
S113022EFF00FF00FF00FF00FF00FF00FF00FF00C4
S113023EFD00FF00FF00FF00FF00FF00FF00FF00B6
S10B024EFF00FF00FD00FF00AA
S9030000FC
